:020000040000FA
:100000009E017728930086118610061183168611AB
:10001000861006110F308605831213089E182D28AE
:100020003A308D00FC305E20333092004120103099
:100030008D0068305E20412064305D2022309200C7
:10004000412028302C200C302C2001302C20063070
:100050002C209E1413082D281E1492001E1C3B28D1
:100060008610033C031C4028402007308D00D03010
:100070005E20031408001E14FE3C03197228861427
:100080001E1C1E1086150F3086051208F0398604D6
:100090008611920E1E18412832305D20031408008C
:1000A0008F018E00FF308E07031C8F07031C722800
:1000B00003308D00DF305E2052288D01E83E8C0039
:1000C0008D09FC30031C67288C07031864288C07F3
:1000D00064008D0F64280C186D288C1C712800009A
:1000E0007128080083130313831264000800831629
:1000F00085018601C83083125020FE300220013075
:100100000220FE3002200F300220453002204D3008
:10011000022052300220553002204C3002204C3058
:10012000022041300220483002202030022053308B
:1001300002204F3002205930022054300220553026
:100140000220523002204B300220FE300220C0300C
:100150000220313002203630022030300220303090
:100160000220383002203130022031300220363077
:100170000220303002203530022036300220FE309E
:100180000220D4300220423002204F3002205A3068
:1001900002204F3002204B30022020300220553008
:1001A00002204E30022049300220563002204530D5
:1001B00002205230022053300220493002205430B5
:1001C0000220453002205330022049300220FE3008
:0A01D0000220D43002206300EB2867
:02400E00FD3F74
:00000001FF
