:020000040000FA
:100000002828A301A200FF30A207031CA307031C9A
:1000100023280330A100DF300F200328A101E83E90
:10002000A000A109FC30031C1828A00703181528FC
:10003000A0076400A10F152820181E28A01C222844
:1000400000002228080083130313831264000800B1
:1000500007309F0083169F018501013086008312BF
:10006000850186016400061C5B280130B80064002D
:100070000B30380203185B28051464300120851406
:100080006430012005156430012005116430012021
:1000900085106430012005106430012064003808A8
:1000A0000A3C031D592886140730A300D0300220D3
:0800B0008610B80F3728322832
:02400E006D3F04
:00000001FF
