:020000040000FA
:10000000B2017728A70089100910091083168910FA
:10001000091009100F30880583122708B2182D28FF
:100020003A30A100FC305E203330A6004120103071
:10003000A10068305E20412064305D202230A6009F
:10004000412028302C200C302C2001302C20063070
:100050002C20B21427082D283214A600321C3B286D
:100060000910033C031C402840200730A100D03079
:100070005E20031408003214FE3C03197228091490
:10008000321C321089140F3088052608F039880494
:100090008910A60E3218412832305D200314080062
:1000A000A301A200FF30A207031CA307031C7228B0
:1000B0000330A100DF305E205228A101E83EA000FD
:1000C000A109FC30031C6728A00703186428A007B7
:1000D0006400A10F642820186D28A01C712800005E
:1000E0007128080083130313831264000800831629
:1000F0008E0107309F0083120911831609118312A4
:100100000130A3002C308A01512083168101F03088
:1001100086008701831286018701FE308A01022052
:1001200001308A010220FE308A01022002308A0159
:1001300002204B308A01022045308A0102205930CA
:100140008A01022050308A01022041308A010220B7
:1001500044308A01022020308A01022050308A0176
:10016000022052308A0102204F308A0102204A3098
:100170008A01022045308A01022053308A01022080
:1001800049308A0102208A110A124621FE30860077
:1001900064008A110A12061ACF280130C2006400D6
:1001A0008A110A12861AD6280130C30064008A1107
:1001B0000A12061BDD280130C40064008A110A12ED
:1001C000861BE4280130C500FD30860064008A11DA
:1001D0000A12061AED280130C60064008A110A12BC
:1001E000861AF4280130C70064008A110A12061B1F
:1001F000FB280130B80064008A110A12861B02290C
:100200000130B900FB30860064008A110A12061A18
:100210000B290130BA0064008A110A12861A1229C9
:100220000130BB0064008A110A12061B1929013033
:10023000BC0064008A110A12861B20290130BD000F
:10024000F730860064008A110A12061A2929013043
:10025000BE0064008A110A12861A30290130BF00DC
:1002600064008A110A12061B37290130C00064009D
:100270008A110A12861B3E290130C1008A110A1216
:1002800057218A110A1246218A01C628C201C301D8
:10029000C401C501C601C701B801B901BA01BB015A
:1002A000BC01BD01BE01BF01C001C1010800640065
:1002B0004208013C8A110A12031D6829FE308A0196
:1002C0000220C0308A01022041308A010220071436
:1002D00064004308013C8A110A12031D7929FE308B
:1002E0008A010220C0308A01022042308A010220A5
:1002F000871464004408013C8A110A12031D8A29EC
:10030000FE308A010220C0308A01022043308A0177
:100310000220071564004508013C8A110A12031DDA
:100320009B29FE308A010220C0308A01022044301D
:100330008A010220871564004608013C8A110A12CE
:10034000031DAC29FE308A010220C0308A01022040
:1003500045308A010220071664004708013C8A11D3
:100360000A12031DBD29FE308A010220C0308A0115
:10037000022046308A010220871664003808013CBA
:100380008A110A12031DCE29FE308A010220C030D4
:100390008A01022030308A010220071764003908E0
:1003A000013C8A110A12031DDF29FE308A01022056
:1003B000C0308A01022031308A0102208717640090
:1003C0003A08013C8A110A12031DF029FE308A0105
:1003D0000220C0308A01022032308A010220071038
:1003E00064003B08013C8A110A12031D012AFE30F9
:1003F0008A010220C0308A01022033308A010220A3
:10040000871064003C08013C8A110A12031D122A5D
:10041000FE308A010220C0308A01022034308A0175
:100420000220071164003D08013C8A110A12031DD5
:10043000232AFE308A010220C0308A010220353092
:100440008A010220871164003E08013C8A110A12C9
:10045000031D342AFE308A010220C0308A010220A6
:1004600036308A010220071264003F08013C8A11DD
:100470000A12031D452AFE308A010220C0308A017B
:10048000022037308A010220871264004008013CB4
:100490008A110A12031D562AFE308A010220C0303A
:1004A0008A01022038308A010220071364004108C3
:1004B000013C8A110A12031D672AFE308A010220BC
:1004C000C0308A01022039308A01022087130800D7
:0604D00063008A01682AA6
:02400E00753FFC
:00000001FF
