:020000040000FA
:10000000B201DA280408A7008611861006118316AB
:100010008611861006110F30860583122708B21844
:100020002E283A30A100FC30A0203330A600422018
:100030001030A1006830A020422064309F20223080
:10004000A600422028302D200C302D2001302D20FC
:1000500006302D20B21427082E283214A600321C98
:100060003C288610033C031C412841200730A10096
:10007000D030A020031408003214FE3C0319D52808
:100080008614321C321086150F3086052608F0398A
:1000900086048611A60E3218422832309F2003149F
:1000A0000800B31329080319B3170430A800250E5C
:1000B0005E2025085E20240E5E2024080F39F63EBF
:1000C0000318073E0A3E8128B31329080319B31702
:1000D0000530A8002730A30010307A200330A30099
:1000E000E8307A20A30164307A20A3010A307A2014
:1000F00024088128A2002508A1002408A000B4201B
:100100002008A000A8030319B313290803198B289A
:100110002802031808002008031DB313B31B0800AE
:10012000303ED028A301A200FF30A207031CA30782
:10013000031CD5280330A100DF30A0209428A101A2
:10014000E83EA000A109FC30031CA928A007031861
:10015000A628A0076400A10FA6282018AF28A01C7D
:10016000B3280000B3280800A501A4011030A600A0
:10017000210DA40DA50D2208A4022308031C230FA2
:10018000A5020318CA282208A40723080318230F6E
:10019000A5070310A00DA10DA60BB8282008D5288F
:1001A000840031088A00300882008313031383120D
:1001B00064000800831685018601831206118316E8
:1001C0000611C83083129220FE3003200130032034
:1001D0006430B800C83092206430B8006400013048
:1001E0003802031C7F296400643038020318402958
:1001F000FE30032002300320203003202030032073
:10020000533003204130032059300320493003206C
:10021000203003203D3003202030032020300320F5
:10022000A9013808A400A5010230B000B101642082
:1002300064000A30380203183F29FE3003200230E0
:10024000032020300320203003205330032041308E
:1002500003205930032049300320203003203D3053
:100260000320203003202030032020300320A90168
:100270003808A400A5010230B000B10164205E2955
:10028000FE300320023003202030032020300320E2
:1002900053300320413003205930032049300320DC
:1002A000203003203D30032020300320A9013808EE
:1002B000A400A5010230B000B1016420FE3003208B
:1002C000C03003204830032045300320583003203D
:1002D000203003203D300320203003200230A900CD
:1002E0003808A400A5010230B000B101512001304E
:1002F000A300F43093200130B8020318EE28EC2854
:02400E00653F0C
:00000001FF
